:100000000C9434000C9446000C9446000C9446006A
:100010000C9446000C9446000C9446000C94480046
:100020000C9446000C9446000C9446000C94650019
:100030000C9446000C9446000C9446000C94460028
:100040000C9446000C9446000C9446000C94460018
:100050000C9446000C9446000C9446000C94460008
:100060000C9446000C94460011241FBECFEFD8E03C
:10007000DEBFCDBF21E0A0E0B1E001C01D92A23003
:10008000B207E1F70E9480000C94B6000C940000C7
:100090001F920F920FB60F9211248F93809100013F
:1000A00088B9809101018295880F807E809301013B
:1000B00080910001811103C085E0809300018F9140
:1000C0000F900FBE0F901F9018951F920F920FB6B2
:1000D0000F9211248F938091010185B980910101C4
:1000E000880F8093010180910101811103C081E09B
:1000F000809301018F910F900FBE0F901F90189564
:100100008FEF8AB91BB884B915B887B918B88BE0D6
:100110008093810023E234EF30938900209388009C
:100120008093B10083E28093B30082E080936F00FC
:100130008093700081E08093010185E0809300014D
:1001400078945F9A2FEF89E698E1215080409040A3
:10015000E1F700C000005F982FEF89E698E1215099
:1001600080409040E1F700C00000EBCFF894FFCF53
:00000001FF
