:100000000C9434000C9446000C9446000C9446006A
:100010000C9446000C9446000C9446000C94460048
:100020000C9446000C9446000C9446000C94480036
:100030000C9446000C9446000C9446000C94460028
:100040000C9446000C9446000C9446000C94460018
:100050000C9446000C9446000C9446000C94460008
:100060000C9446000C94460011241FBECFEFD8E03C
:10007000DEBFCDBF21E0A0E0B1E001C01D92A13004
:10008000B207E1F70E9463000C948D000C9400000D
:100090001F920F920FB60F9211248F93809100013F
:1000A00085B980910001880F809300018091000143
:1000B000811103C081E0809300018F910F900FBEEA
:1000C0000F901F9018958FEF8AB91BB884B915B897
:1000D0008BE08093810083E294EF9093890080937A
:1000E000880082E080936F0081E080930001789423
:1000F0005F9A2FEF89E698E1215080409040E1F728
:1001000000C000005F982FEF89E698E12150804001
:0E0110009040E1F700C00000EBCFF894FFCF65
:00000001FF
