:100000000C9434000C9446000C9446000C9446006A
:100010000C9446000C9446000C9446000C94480046
:100020000C9446000C9446000C9446000C946F000F
:100030000C9446000C9446000C9446000C94460028
:100040000C9446000C9446000C9446000C94460018
:100050000C9446000C9446000C9446000C94460008
:100060000C9446000C94460011241FBECFEFD8E03C
:10007000DEBFCDBF21E0A0E0B1E001C01D92A23003
:10008000B207E1F70E948A000C94C2000C940000B1
:100090001F920F920FB60F9211248F93809100013F
:1000A000843691F4449A45988091000180FD15C0F2
:1000B000439A809100018F5F809300018F910F9090
:1000C0000FBE0F901F90189580910001883C60F33F
:1000D0004498459A10920001E7CF4398EACF1F92C7
:1000E0000F920FB60F9211248F938091010185B961
:1000F00080910101880F809301018091010181119C
:1001000003C081E0809301018F910F900FBE0F908B
:100110001F9018958FEF8AB91BB884B915B887B9A5
:1001200018B88BE08093810083E294EF909389006C
:100130008093880082E08093B00097E09093B100B4
:100140009DE49093B30080936F008093700081E0F2
:10015000809301011092000178945F9A2FEF89E655
:1001600098E1215080409040E1F700C000005F9886
:100170002FEF89E698E1215080409040E1F700C0E0
:080180000000EBCFF894FFCF63
:00000001FF
