:100000000C9434000C9446000C9446000C9446006A
:100010000C9446000C9446000C9446000C94480046
:100020000C9446000C9446000C9446000C9463001B
:100030000C9446000C9446000C9446000C94460028
:100040000C9446000C9446000C9446000C94460018
:100050000C9446000C9446000C9446000C94460008
:100060000C9446000C94460011241FBECFEFD8E03C
:10007000DEBFCDBF21E0A0E0B1E001C01D92A23003
:10008000B207E1F70E947E000C94B4000C940000CB
:100090001F920F920FB60F9211248F93809100013F
:1000A00088B980910001880F809300018091000140
:1000B000811103C081E0809300018F910F900FBEEA
:1000C0000F901F9018951F920F920FB60F92112448
:1000D0008F938091010185B980910101880F8093F0
:1000E000010180910101811103C081E08093010130
:1000F0008F910F900FBE0F901F9018958FEF8AB9B8
:100100001BB884B915B887B918B88BE08093810003
:1001100083E294EF90938900809388008FE080932E
:10012000B10081E48093B30082E080936F008093FC
:10013000700081E0809301018093000178945F9AC0
:100140002FEF89E698E1215080409040E1F700C010
:1001500000005F982FEF89E698E1215080409040A1
:0C016000E1F700C00000EBCFF894FFCFE7
:00000001FF
