:100000000C9434000C9446000C9446000C9446006A
:100010000C9446000C9446000C9446000C94480046
:100020000C9446000C9446000C9446000C94660018
:100030000C9446000C9446000C9446000C94460028
:100040000C9446000C9446000C9446000C94460018
:100050000C9446000C9446000C9446000C94460008
:100060000C9446000C94460011241FBECFEFD8E03C
:10007000DEBFCDBF21E0A0E0B1E001C01D92A33002
:10008000B207E1F70E9481000C94BB000C940000C1
:100090001F920F920FB60F9211248F93809100013F
:1000A000883061F4459A809100018F5F8093000150
:1000B0008F910F900FBE0F901F90189580910001A7
:1000C000803189F7459810920001EDCF1F920F9271
:1000D0000FB60F9211248F938091020185B9809100
:1000E0000201880F8093020180910201811103C0F7
:1000F00081E0809302018F910F900FBE0F901F90AF
:1001000018958FEF8AB91BB884B915B887B918B894
:100110008BE08093810083E294EF90938900809339
:10012000880082E08093B00097E09093B10090EA5D
:100130009093B30080936F008093700081E0809370
:100140000201809301011092000178945F9A2FEFD1
:1001500089E698E1215080409040E1F700C000001E
:100160005F982FEF89E698E1215080409040E1F7B9
:0A01700000C00000EBCFF894FFCFB1
:00000001FF
